:020000040000FA
:0600000041EF39F012008F
:020006001200E6
:0600080063EF35F0120069
:02000E00504957
:070010004354435049500026
:0600180006EF35F01200B6
:02001E002800B8
:10002000017300004803000003000000FF7200009D
:100030008B03000002000000FD7200008903000035
:1000400002000000FB7200008703000002000000B5
:10005000F97200008503000002000000F772000042
:100060008303000002000000F5720000810300001D
:1000700002000000F37200007F0300000200000095
:10008000F17200007D03000002000000EF7200002A
:100090007B03000002000000ED7200007903000005
:1000A00002000000EB720000770300000200000075
:1000B000E97200007503000002000000E772000012
:1000C0007303000002000000E572000071030000ED
:1000D00002000000E37200006F0300000200000055
:1000E000E07200004503000003000000DC72000025
:1000F0004103000004000000DA7200006D030000FC
:1001000002000000D87200006B0300000200000033
:10011000D67200006903000002000000CF720000E8
:100120003003000007000000CD72000067030000EC
:1001300002000000CB720000650300000200000016
:10014000C97200006303000002000000C7720000D3
:100150006103000002000000C57200005F030000A0
:1001600002000000C37200005D03000002000000F6
:10017000C17200005B03000002000000BF720000BB
:100180005903000002000000BC720000FD000000E6
:1001900003000000BA7200005703000002000000D4
:1001A000B67200003D03000004000000B4720000BD
:1001B0005503000002000000B2720000530300006B
:1001C00002000000AC7200003703000006000000CF
:1001D000AA7200005103000002000000A872000093
:1001E0004F03000002000000A67200004D03000053
:1001F00002000000A47200004B0300000200000097
:100200000101435103013F5D01E140D0FE0E3F5D1E
:100210001BE01C0EE66EE66A270EE66E010EE66E29
:100220003F511C0DF3CF14F0F4CF15F0000E14263F
:10023000020E152214C0E6FF15C0E6FFE7EC36F00B
:10024000166E060EE15E165043C13FF3FE0E01012D
:10025000435D01E11BD01C0EE66EE66A43511C0DA6
:10026000F3CF14F0F4CF15F0000E1426020E152271
:1002700014C0E6FF15C0E6FF270EE66E010EE66E1F
:10028000E7EC36F0166E060EE15E16501200030122
:100290003F51405D01E14FD0FE0E405D32E0250E42
:1002A0000101B86FB96B0101010EB76F0101020EB8
:1002B000B56F010EB66F030140511C0DF3CFE9FF7E
:1002C000F4CFEAFF000EE926020EEA221B0EE92611
:1002D000000EEA22EFCFB4F140511C0DF3CFE9FF3D
:1002E000F4CFEAFF000EE926020EEA22EECFB2F1C9
:1002F000EFCFB3F10101250EB25F000EB35B2DEC21
:1003000020F03FC340F3250E0101B86FB96B42C125
:10031000B7F127C1B5F128C1B6F10101B55F000EF3
:10032000B65B0101010EB46F0101020EB26F010E46
:10033000B36F2DEC20F0120004012F0E1D6F170E6D
:100340001E6F0101005101110FE1DDEC29F006C023
:1003500000F107C001F1FF0E01010017070E0117A0
:10036000000E0027040E01233C0EE66EE66AE66AE4
:10037000800EE66E000EE66E35EC37F0146E050E5C
:10038000E15E14500401156B146B1451146E156A60
:10039000050E145C000E155801E326D114C443F178
:1003A0002FDF640E146E720E156E000E166E14C4DE
:1003B00017F0186A196A060E0C6E0D6A0E6A17C0DD
:1003C00007F018C008F019C009F022EC38F004C09A
:1003D00017F005C018F006C019F014501724F36E7A
:1003E00015501820F46E16501920F86EF4CFF7FF50
:1003F000F3CFF6FFF62A000EF722F8220800F5CF19
:100400001CF4640E146E720E156E000E166E14C47B
:1004100017F0186A196A060E0C6E0D6A0E6A17C07C
:1004200007F018C008F019C009F022EC38F004C039
:1004300017F005C018F006C019F014501724F36E19
:1004400015501820F46E16501920F86EF4CFF7FFEF
:10045000F3CFF6FF020EF626000EF722F82209006F
:10046000F5CF16F40A00F5CF17F4640E146E720E71
:10047000156E000E166E14C417F0186A196A060E6F
:100480000C6E0D6A0E6A17C007F018C008F019C08C
:1004900009F022EC38F004C017F005C018F006C0CF
:1004A00019F014501724F36E15501820F46E1650DE
:1004B0001920F86EF4CFF7FFF3CFF6FF040EF626FF
:1004C000000EF722F8220900F5CF18F40A00F5CF44
:1004D00019F404011C5101E086D01DC41AF41EC495
:1004E0001BF4250E176A1625166E17511722010EDA
:1004F0001626000E172216501825146E17501921B3
:10050000156E010E1426000E152214501D271550CD
:100510001E231DC414F01EC415F0166A176AD88075
:10052000FC0E14541F0E1554000E1654000E1754D2
:1005300001E2EFD71CC442F1250E04011A25010186
:10054000276F000E04011B210101286F27510401B0
:1005500016250101296F28510401172101012A6F75
:10056000010E2927000E2A23295104011825010113
:100570002B6F2A510401192101012C6F0D0E3D6FC3
:100580003E9785DE640E146E720E156E000E166EAA
:1005900014C417F0186A196A060E0C6E0D6A0E6AFA
:1005A00017C007F018C008F019C009F022EC38F0A5
:1005B00004C017F005C018F006C019F01450172435
:1005C000F36E15501820F46E16501920F86EF4CF03
:1005D000F7FFF3CFF6FF0800F5CF26F137EC17F061
:1005E0000401142BD2D6FFD712000401376B375108
:1005F000146E156A050E145C000E155801E3AFD099
:1006000037C443F1FDDD0D0E01013D5D01E0A4D0D5
:100610003EDE01014B51265D01E09ED048510CE1C8
:1006200049C112F14AC113F13E87040E3D6F49C121
:1006300040F14AC141F18DD0000E005D040E015918
:1006400006E3880ED8800055130E015503E2006BB7
:10065000040E016F00C112F101C113F1002B000E55
:10066000012349C110F14AC111F1B2EC37F006C0C3
:1006700035F107C036F108C037F109C038F1010182
:100680003E894851040A26E0070A01E062D046513B
:100690004425166E47514521176E16504925146E94
:1006A00017504A21156E14501219406F1550131926
:1006B000416F44C118F145C119F146C11AF147C152
:1006C0001BF1256B260E026F036B046B056B020E8C
:1006D0003D6F3FD044C1E9FF45C1EAFF020EE92664
:1006E000000EEA22EECF18F0EFCF19F044C1E9FF77
:1006F00045C1EAFF1850EE24166E1950EE20176E11
:1007000016504925146E17504A21156E14501219AF
:10071000406F15501319416F0A0EE66EE66A44C128
:10072000E6FF45C1E6FF180EE66E010EE66EE7EC49
:1007300036F0146E060EE15E14500101050E3D6F99
:100740000101010EA16F0101020EA06F85EC10F0F6
:1007500000D00401375105D00401372B48D7FE0ED5
:1007600000D012004CC143F14BDD01013FA903D081
:100770003F99010E02D0000E00D012004DC143F18E
:100780003FDD070E01013D5D02E0000E01D0010ECC
:1007900000D012004EC143F133DD31C133F132C11B
:1007A00034F101013D51080A33E0010A31E0050A44
:1007B0002FE0020A2AE0050A1CE00D0A0EE0010AF9
:1007C0000CE0070A07E0020A05E0010A03E0060A56
:1007D00001E01ED037EC17F025D00101010EA16F0A
:1007E0000101110EA06F85EC10F00101080E3D6FA4
:1007F00019D00101010EA16F0101110EA06F85EC4E
:1008000010F001010C0E3D6F0DD00D0E3D6F0AD0A2
:100810000101A16B0101140EA06F85EC10F037EC03
:1008200017F000D012004FC143F1EADC30DD0A0EB0
:10083000E66EE66A180EE66E010EE66E500EE66E85
:10084000010EE66EE7EC36F0146E060EE15E145013
:1008500010C15AF111C15BF1500E146E010E156EEC
:1008600014C0F3FF15C0F4FF00D012005CC143F1C7
:10087000C7DC0DDD01010E512D1902E10F512E19BA
:1008800008E00101010EA16F0101100EA06F85ECBF
:1008900010F012005DC143F1B3DC3DC104F4070E5A
:1008A0000401045D06E00B0E045D03E0F36AF46AE4
:1008B0002FD001012F512D5D30512E591BE32751AF
:1008C000295D166E2A512855176E1606000E175A06
:1008D0002F512D5D186E2E513055196E1850165C23
:1008E000146E19501758156E14C0F3FF15C0F4FF9D
:1008F0000FD00ED02D512F5D146E30512E55156E28
:100900001406000E155A14C0F3FF15C0F4FF00D0F2
:1009100012005EC143F174DC5EC15DF1BBDFF3CF59
:1009200037F4F4CF38F404013751381103E1000EE5
:1009300063D008D0010E371901E1385103E15EC1DF
:100940005CF194DF01013F51010B14E12751295D56
:10095000146E2A512855156ED890153214320401A0
:100960003751145C3851155805E35EC15CF17EDFE8
:1009700001013F81010E0101B86FB96B0101B76F31
:1009800001015F0EB56F010EB66F42C1B4F12DC10A
:10099000B2F12EC1B3F12DEC20F001012D2B000E90
:1009A0002E2329512D5D2A512E5904E327C12DF103
:1009B00028C12EF10401010E371901E1385104E17B
:1009C0005EC15CF153DF16D001013EBB13D03E8BFC
:1009D000BDEC37F006C014F007C015F0166A176AB0
:1009E000060E1426000E15221622172214C039F105
:1009F00015C03AF1010E00D0120004012E6B2F6BCE
:100A000060C143F100EC01F060C15DF143DFF3CF61
:100A10002CF4F4CF2DF404012C512D1106E160C10A
:100A20005CF124DFF36AF46AADD02CC42AF42DC43F
:100A30002BF42C510101635D04012D510101645916
:100A400004E263C12AF464C12BF43F51010B14E1A9
:100A50002751295D146E2A512855156ED8901532EC
:100A6000143204012C51145C2D51155805E360C15A
:100A70005CF1FCDE01013F8101012D5104012A25B9
:100A8000146E01012E5104012B21156E0101295113
:100A9000145C2A5115582DE32D51295D04012E6F48
:100AA00001012E512A5904012F6F2EC4B8F12FC411
:100AB000B9F10101010EB76F61C1B5F162C1B6F1C3
:100AC00042C1B4F12DC1B2F12EC1B3F12DEC20F031
:100AD00004012E510101612704012F5101016223FC
:100AE00004012E512A5F2F512B5B27C12DF128C104
:100AF0002EF12AC4B8F12BC4B9F10101010EB76F70
:100B000061C1B5F162C1B6F142C1B4F12DC1B2F11A
:100B10002EC1B3F12DEC20F004012A5101012D2743
:100B200004012B5101012E2304012C510101635DAD
:100B300004012D510101645904E360C15CF196DEAA
:100B400015D03EBB13D03E8BBDEC37F006C014F081
:100B500007C015F0166A176A060E1426000E152235
:100B60001622172214C039F115C03AF104012A5196
:100B70002E25146E2B512F21156E14C0F3FF15C0B6
:100B8000F4FF00D0120004012E6B2F6B65C143F1FE
:100B900000EC01F065C15DF17DDEF3CF2CF4F4CF04
:100BA0002DF404012C512D1106E165C15CF15EDECE
:100BB000F36AF46AB0D001013F51010B14E12751EF
:100BC000295D146E2A512855156ED89015321432AD
:100BD00004012C51145C2D51155805E365C15CF1DD
:100BE00045DE01013F812CC42AF42DC42BF40401FD
:100BF0002C510101695D04012D5101016A5904E282
:100C000069C12AF46AC12BF42D5104012A25146EFE
:100C100001012E5104012B21156E01012951145C93
:100C20002A51155830E32D51295D04012E6F010121
:100C30002E512A5904012F6F2EC4C0F12FC4C1F1C7
:100C400066C1BDF167C1BEF168C1BFF142C1BCF16F
:100C50002DC1BAF12EC1BBF18DEC20F02EC414F0E1
:100C60002FC415F0166A145001016627155067232A
:100C70001650682304012E512A5F2F512B5B27C188
:100C80002DF128C12EF12AC4C0F12BC4C1F166C1D7
:100C9000BDF167C1BEF168C1BFF142C1BCF12DC158
:100CA000BAF12EC1BBF18DEC20F004012A510101F3
:100CB0002D2704012B5101012E2304012C51010188
:100CC000695D04012D5101016A5904E365C15CF1BC
:100CD000CDDD15D03EBB13D03E8BBDEC37F006C04A
:100CE00014F007C015F0166A176A060E1426000ED7
:100CF00015221622172214C039F115C03AF1040149
:100D00002A512E25146E2B512F21156E14C0F3FF7E
:100D100015C0F4FF00D012006CC1E6FF6DC1E6FF04
:100D20004FEC37F0E552E552F3CF63F1F4CF64F1C5
:100D30006CC161F16DC162F16BC160F15EDE0101F8
:100D40006C51F324146E6D51F420156E14C0F3FF32
:100D500015C0F4FF00D012006FC1E6FF70C1E6FFBE
:100D600071C1E6FF5DEC37F0E552E552E55207C090
:100D700069F108C06AF16FC166F170C167F171C1B4
:100D800068F16EC165F1FFDEF3CF17F0F4CF18F014
:100D9000196A01016F511724146E70511820156ED5
:100DA00071511920166E14C007F015C008F016C056
:100DB00009F000D0120072C143F100EC01F0010112
:100DC0002751295D0401026F010128512A590401AC
:100DD000036F010E025F000E035B72C15DF15ADD0D
:100DE000F3CF00F4F4CF01F404010051025D146E5E
:100DF00003510155156E14C0F3FF15C0F4FF00D068
:100E0000120073C174F118D8F3CF14F0F4CF15F0B9
:100E10001450151010E073C143F100EC01F031C122
:100E200033F132C134F10101010EA16F0101100E45
:100E3000A06F85EC10F0120074C143F100EC01F0DA
:100E400001013351315D345132590CE33351315D7D
:100E5000146E32513455156E14C0F3FF15C0F4FFF3
:100E60001CD01BD033512B5D166E2C513455176E90
:100E7000010E1626000E17222951315D186E3251CF
:100E80002A55196E16501824146E17501920156E15
:100E900014C0F3FF15C0F4FF00D0120075C174F147
:100EA000CBDFF3CF00F4F4CF01F4040100510111C2
:100EB00002E1000E48D075C143F100EC01F00101E0
:100EC0007651771112E0010E0101B86FB96B42C182
:100ED000B7F133C1B5F134C1B6F10101B46F76C1D8
:100EE000B2F177C1B3F12DEC20F00101332B000EEC
:100EF000342333512B5D34512C5904E229C133F191
:100F00002AC134F10401010E001901E1015103E18C
:100F100001013F8516D001013EBB13D03E8BBDECD5
:100F200037F006C014F007C015F0166A176A060EEF
:100F30001426000E15221622172214C039F115C0EE
:100F40003AF1010E00D012000401026B036B78C16C
:100F500074F172DFF3CF00F4F4CF01F40401005117
:100F6000011103E1F36AF46AA1D078C143F100EC06
:100F700001F001017B510401005D01017C5104017C
:100F8000015904E200C47BF101C47CF10101335139
:100F90007B25146E34517C21156E14502B5D155039
:100FA0002C5938E233512B5D0401026F0101345199
:100FB0002C590401036F010E0227000E03230101C7
:100FC00079517A111BE002C4B8F103C4B9F142C1EE
:100FD000B7F133C1B5F134C1B6F10101010EB46FFF
:100FE00079C1B2F17AC1B3F12DEC20F004010251C4
:100FF000010179270401035101017A2304010251FF
:1010000001017B5F0401035101017C5B29C133F1C4
:101010002AC134F179517A1113E07BC1B8F17CC156
:10102000B9F142C1B7F133C1B5F134C1B6F1010133
:10103000010EB46F79C1B2F17AC1B3F12DEC20F099
:1010400001017B5133277C513423040102510101FA
:101050007B270401035101017C237B510401005DC6
:10106000146E015101017C55156E14507B5D1550B5
:101070007C5902E33F8515D03EBB13D03E8BBDECBF
:1010800037F006C014F007C015F0166A176A060E8E
:101090001426000E15221622172214C039F115C08D
:1010A0003AF17BC1F3FF7CC1F4FF00D012007DC197
:1010B00043F100EC01F0010129512B5D0401026FA5
:1010C00001012A512C590401036F7DC174F1B4DE72
:1010D000F3CF00F4F4CF01F404010051025D146E6B
:1010E00003510155156E14C0F3FF15C0F4FF00D075
:1010F000120001018151821103E1F36AF46AB2D155
:101100007EC143F100EC01F07EC174F195DE010176
:101110008351F35C0401026F01018451F45804010E
:10112000036F010181510401025D0101825104013B
:10113000035903E2F368F46895D1010185518611E2
:101140000DE0040102510101855D0401035101011B
:10115000865904E285C102F486C103F43351832524
:101160000401066F0101345184210401076F065107
:1011700001012B5D0401075101012C590FE2295196
:101180002B5D146E2C512A55156E010E1426000E7F
:10119000152214500401065F1550075B06C400F4C5
:1011A00007C401F40401065101012B5D0401046F21
:1011B000075101012C590401056F010E0427000E8F
:1011C000052383C106F484C107F481C108F482C1F8
:1011D00009F47FC10AF480C10BF401017FC1E9FF6A
:1011E00080C1EAFF7F2B8023EFCF0DF404010F6B4A
:1011F0000101875109E0610E04010D5D05E30D5108
:101200007A0802E3E00E0D270401200E0E6F0E5146
:10121000045D000E055902E204C40EF40E51025D95
:10122000000E035902E202C40EF40E510101B86F20
:10123000B96B42C1B7F100C4B5F101C4B6F1010107
:10124000010EB46F0101100EB26F040EB36F2DECDE
:1012500020F004010E51146E156A14500027155029
:1012600001230E51146E156A1450045F1550055B6E
:101270000451051106E129C100F42AC101F40469F1
:1012800005690101875101E181D004010C6B0E5108
:101290000C5D01E37AD00C51EA6A100FE96E040E7E
:1012A000EA22EFCF14F0610E145C13E30C51EA6AEA
:1012B000100FE96E040EEA22EF507A080AE3E00EFE
:1012C000146E0C51EA6A100FE96E040EEA221450F3
:1012D000EF260C51EA6A100FE96E040EEA22EF5075
:1012E0000D5D33E101018107000E825B81518211A6
:1012F00017E104010851065D166E07510955176E76
:101300000C5100011624146E000E1720156E010EEC
:101310001426000E152214C0F3FF15C0F4FFA2D04E
:101320007FC1E9FF80C1EAFF7F2B000E8023EFCF52
:101330000DF40401010E0F6F610E0D5D05E30D51FB
:101340007A0802E3E00E0D271ED008C481F109C41B
:1013500082F10F5118E00AC47FF10BC480F1010142
:101360007FC1E9FF80C1EAFF7F2B000E8023EFCF12
:101370000DF4610E04010D5D05E30D517A0802E3E1
:10138000E00E0D270F6B0C2B82D751D004010C6B94
:101390000E510C5D4CE20C51EA6A100FE96E040E1E
:1013A000EA22EF500D5D2BE101018107000E825B07
:1013B0008151821117E104010851065D166E075133
:1013C0000955176E0C5100011624146E000E1720DB
:1013D000156E010E1426000E152214C0F3FF15C061
:1013E000F4FF40D07FC1E9FF80C1EAFF7F2B000EF0
:1013F0008023EFCF0DF40401010E0F6F16D008C447
:1014000081F109C482F10F5110E00AC47FF10BC4CD
:1014100080F101017FC1E9FF80C1EAFF7F2B000E4F
:101420008023EFCF0DF404010F6B0C2BB1D70E51BD
:10143000146E156A1450025F1550035B010181514F
:101440000401025D010182510401035903E2F368C2
:10145000F46808D00E51146E156A14500627155002
:101460000723D2D6120001018C518D1103E1F36ADA
:10147000F46ACCD188C143F100EC01F088C174F169
:10148000DBDC01018E51F35C0401026F01018F511D
:10149000F4580401036F01018C510401025D010144
:1014A0008D510401035903E2F368F468AFD10101DF
:1014B000905191110DE0040102510101905D040170
:1014C00003510101915904E290C102F491C103F466
:1014D00033518E250401066F010134518F2104011F
:1014E000076F065101012B5D0401075101012C59C1
:1014F0000FE229512B5D146E2C512A55156E010EE9
:101500001426000E152214500401065F1550075BC7
:1015100006C400F407C401F40401065101012B5D67
:101520000401046F075101012C590401056F010EDC
:101530000427000E05238EC106F48FC107F48CC169
:1015400008F48DC109F489C10AF48AC10BF48BC176
:101550000CF4010189C1F6FF892B8AC1F7FF8A23A8
:101560008BC1F8FF8B230800F5CF0EF40401106B3C
:101570000101925109E0610E04010E5D05E30E5177
:101580007A0802E3E00E0E270401200E0F6F0F51C0
:10159000045D000E055902E204C40FF40F51025D10
:1015A000000E035902E202C40FF40F510101B86F9B
:1015B000B96B42C1B7F100C4B5F101C4B6F1010184
:1015C000010EB46F0101110EB26F040EB36F2DEC5A
:1015D00020F004010F51146E156A145000271550A5
:1015E00001230F51146E156A1450045F1550055BEA
:1015F0000451051106E129C100F42AC101F404696E
:1016000005690101925101E18BD004010D6B0F516D
:101610000D5D01E384D00D51EA6A110FE96E040EED
:10162000EA22EFCF14F0610E145C13E30D51EA6A65
:10163000110FE96E040EEA22EF507A080AE3E00E79
:10164000146E0D51EA6A110FE96E040EEA2214506D
:10165000EF260D51EA6A110FE96E040EEA22EF50EF
:101660000E5D37E101018C07000E8D5B8C518D11F1
:1016700017E104010851065D166E07510955176EF2
:101680000D5100011624146E000E1720156E010E68
:101690001426000E152214C0F3FF15C0F4FFB6D0B7
:1016A00089C1F6FF892B8AC1F7FF000E8A238BC1FF
:1016B000F8FF8B230800F5CF0EF40401010E106F24
:1016C000610E0E5D05E30E517A0802E3E00E0E276F
:1016D00024D008C48CF109C48DF110511EE00AC455
:1016E00089F10BC48AF10CC48BF1010189C1F6FFA9
:1016F000892B8AC1F7FF000E8A238BC1F8FF8B2349
:101700000800F5CF0EF4610E04010E5D05E30E51E5
:101710007A0802E3E00E0E27106B0D2B78D75BD012
:1017200004010D6B0F510D5D56E20D51EA6A110F68
:10173000E96E040EEA22EF500E5D2FE101018C07E5
:10174000000E8D5B8C518D1117E104010851065D6F
:10175000166E07510955176E0D5100011624146EAF
:10176000000E1720156E010E1426000E152214C04F
:10177000F3FF15C0F4FF4AD089C1F6FF892B8AC157
:10178000F7FF000E8A238BC1F8FF8B230800F5CFEB
:101790000EF40401010E106F1CD008C48CF109C4B2
:1017A0008DF1105116E00AC489F10BC48AF10CC402
:1017B0008BF1010189C1F6FF892B8AC1F7FF000E69
:1017C0008A238BC1F8FF8B230800F5CF0EF40401A8
:1017D000106B0D2BA7D70F51146E156A1450025FB2
:1017E0001550035B01018C510401025D01018D5113
:1017F0000401035903E2F368F46808D00F51146E32
:10180000156A1450062715500723BED6120099C139
:1018100087F197C185F198C186F195C183F196C191
:1018200084F1010E0101816F826B0101940E7F6FC3
:10183000010E806F93C17EF15CDC00D012000401C8
:101840002A6B2A51146E156A050E145C000E155889
:1018500001E316D32AC443F100EC01F004012D6B1F
:101860002B6B2C6B01013F51020B03E13F51040B29
:101870000EE032EC22F000090AE00401100E2D6F98
:1018800001013F51040B01E0010E04012B6F010126
:101890003EAB13D0BDEC37F001010650395D146E3C
:1018A00007503A59156E153404E214500008000E22
:1018B000155403E30401100E2D6F01013EAD13D04A
:1018C000BDEC37F0010106503B5D146E07503C59EA
:1018D000156E153404E214500008000E155403E38D
:1018E0000401100E2D6F0B0E01013D5D16E1BDECE4
:1018F00037F0010106503B5D146E07503C59156EE0
:10190000153404E214500008000E155406E30401D7
:10191000110E2D6F01010C0E3D6F040E3D5D01E0B7
:101920000AD104012E6B2F6B030E2E5D000E2F5972
:1019300001E301D12EC4E9FF2FC4EAFF140EEA022D
:10194000F3CFEAFFE902F3CFE9FFF450EA26800E75
:10195000E926000EEA22100EE926000EEA22EE50D9
:10196000ED1001E1E8D02EC4E9FF2FC4EAFF140E08
:10197000EA02F3CFEAFFE902F3CFE9FFF450EA26E7
:10198000800EE926000EEA22100EE926000EEA2259
:10199000EECF14F0EFCF15F001014051141802E121
:1019A0004151151801E0C2D047EC01F00A0EE66E75
:1019B000E66A2EC4E9FF2FC4EAFF140EEA02F3CF51
:1019C000EAFFE902F3CFE9FFF450EA26800EE926A8
:1019D000000EEA22E9CF14F0EACF15F014C0E6FFBA
:1019E00015C0E6FF180EE66E010EE66EE7EC36F067
:1019F000166E060EE15E16502EC4E9FF2FC4EAFFF4
:101A0000140EEA02F3CFEAFFE902F3CFE9FFF45044
:101A1000EA26800EE926000EEA220A0EE926000ECA
:101A2000EA22EECF10F1EDCF11F12EC4E9FF2FC461
:101A3000EAFF140EEA02F3CFEAFFE902F3CFE9FF6F
:101A4000F450EA26800EE926000EEA220C0EE92662
:101A5000000EEA22EECF0AF1EECF0BF1EECF0CF141
:101A6000EFCF0DF101010A2B0B230C230D231A518B
:101A70001825166E1B511921176E16501025146E5D
:101A800017501121156E14501219406F155013196B
:101A9000416F0401120E2D6F0101060E3D6F2EC421
:101AA000B8F12FC4B9F10101020ED880B857000E69
:101AB000B957140EB903F3CFB9F1B803F3CFB8F1A6
:101AC000F450B9270101010EB76F04012E25010161
:101AD000B56F000E04012F210101B66F140EB6037D
:101AE000F3CFB6F1B503F3CFB5F1F450B627800EBE
:101AF000B527000EB6230101010EB46F140E086E57
:101B0000096A2EC40DF02FC40EF004EC38F006C0A4
:101B1000B2F107C0B3F1800E0101B227000EB3236A
:101B20002DEC20F00001B86BB96B05D004012E2B11
:101B3000000E2F23F9D604012D510AE02B5102E0AB
:101B4000000E01D0010E0101A16F2DC4A0F1DDDA5C
:101B500001013EB94ED0070E3D5D4AE1B2EC37F0CF
:101B600001013551065C146E36510758156E375118
:101B70000858166E38510958176E0001800E171458
:101B800001E07BD101013E51070B060815E13E51F2
:101B9000080B01E0010E04012D6F2AC44EF1CAECBE
:101BA00003F02AC44EF1CAEC03F004012D5103E105
:101BB00001010E0E3D6F61D147EC01F00101020EF3
:101BC000A16F0101100EA06FA0DAB2EC37F006C0D1
:101BD00035F107C036F108C037F109C038F1E60E1B
:101BE00001013527F50E3623050E3723000E382365
:101BF00044D1B2EC37F001013551065C146E365118
:101C00000758156E37510858166E38510958176E17
:101C10000001800E171401E030D147EC01F0010102
:101C20003D510C0A01E1CCD0060A01E1BAD0030A09
:101C300001E1B1D0010A01E19FD00F0A01E18DD08D
:101C40000C0A01E18AD00D0A73E0030A6BE0060A70
:101C500014E0010A01E0C3D0BDEC37F006C039F151
:101C600007C03AF10001180ED26F010ED36FD5EC08
:101C70002FF00101030E3D6FB2D000011C0ED66F94
:101C8000010ED76F0001180ED46F010ED56F19EC3D
:101C900030F000093FE139C118F03AC119F01A6A71
:101CA0001B6A18C0E6FF19C0E6FF1AC0E6FF1BC09A
:101CB000E6FFBDEC37F0E552E7CF1BF0E552E7CF8A
:101CC0001AF0E552E7CF19F0E552E7CF18F000011E
:101CD0001850065C146E19500758156E1A500858A3
:101CE000166E1B500958176E14500101025D1550F5
:101CF000035916500459175005590BE2060E255D7D
:101D000006E2252BD8900237033704370537020E39
:101D10003D6F65D00401020E2D6F2B6B0101050E86
:101D20003D6F5DD00401020E2D6F010E2B6F57D059
:101D3000020E255D06E20401120E2D6F010E2B6FBF
:101D40000BD03EA706D00401140E2D6F010E2C6F90
:101D500003D00401020E2D6F42D0050E255D06E270
:101D60000401100E2D6F010E2B6F05D0080E3D6F74
:101D70000401110E2D6F33D0050E255D06E204011E
:101D8000110E2D6F010E2B6F05D00401140E2D6F57
:101D9000010E2C6F24D00401140E2D6F010E2C6F38
:101DA0001ED0050E255D06E20401100E2D6F010EFA
:101DB0002B6F05D00401140E2D6F010E2C6F0FD068
:101DC000050E255D06E20401110E2D6F010E2B6F2D
:101DD00005D00401140E2D6F010E2C6F00D00401EC
:101DE0002D5146E02B513EE00101252BD8900237C2
:101DF0000337043705372F510E5D146E0F513055E0
:101E0000156E166A176A15AE02D016681768145058
:101E1000065F1550075B1650085B1750095B2F5182
:101E20000E5D30510F5914E22751295D146E2A516D
:101E30002855156E166A176A15AE02D0166817680F
:101E40001450065F1550075B1650085B1750095B6E
:101E50002FC10EF130C10FF10101A16B2DC4A0F112
:101E600054D906D00101010EA16F2DC4A0F14DD9A6
:101E700004012C5102E037EC17F004012A2BE1D4C5
:101E80002E6B2F6B030E2E5D000E2F5901E399D0A0
:101E90002EC4E9FF2FC4EAFF140EEA02F3CFEAFFD3
:101EA000E902F3CFE9FFF450EA26800EE926000E9E
:101EB000EA22100EE926000EEA22EE50ED1001E1B2
:101EC00080D02EC4E9FF2FC4EAFF140EEA02F3CF3C
:101ED000EAFFE902F3CFE9FFF450EA26800EE92693
:101EE000000EEA22120EE926000EEA22EECF16F0CC
:101EF000EFCF17F016C0E6FF17C0E6FFBDEC37F0D6
:101F0000E552E7CF17F0E552E7CF16F01650065C22
:101F1000146E17500758156EC90ED8801454010E50
:101F200015544AE22EC4B8F12FC4B9F10101020ED2
:101F3000D880B857000EB957140EB903F3CFB9F1D2
:101F4000B803F3CFB8F1F450B9270101010EB76F10
:101F500004012E250101B56F000E04012F2101019E
:101F6000B66F140EB603F3CFB6F1B503F3CFB5F1E8
:101F7000F450B627800EB527000EB6230101010EDE
:101F8000B46F140E086E096A2EC40DF02FC40EF043
:101F900004EC38F006C0B2F107C0B3F1800E0101C5
:101FA000B227000EB3232DEC20F00001B86BB96B03
:101FB00004012E07000E2F5B04012E2B000E2F2391
:101FC00061D712009AC1E9FF9BC1EAFFEECF3EF450
:101FD000EECF3FF4EECF40F4EFCF41F49CC1E9FFE8
:101FE0009DC1EAFFEECF42F4EECF43F4EECF44F4CE
:101FF000EFCF45F40401466B060E476F9EC148F4CF
:102000009FC149F448C4DFF249C4E0F2A2EC2DF0CC
:10201000F3CF48F4F4CF49F40C0E0201E76FE86BFC
:1020200002013E0EE56F040EE66FC9EC2DF0F3CF12
:102030004AF4F4CF4BF404014A1F4B1F9EC1DBF15D
:102040009FC1DCF1BBEC25F0F3CF4CF4F4CF4DF4A1
:1020500004014C514A1902E14D514B1904E040EC86
:1020600022F0010E51D00301226B236BA5EC34F05A
:10207000140E0101E56FE66B01012A0EE36F040EF9
:10208000E46FCAEC27F001012A0EA66F040EA76FB9
:102090005CEC16F004013651F00BE842E842E842ED
:1020A000E842040DF350146E156A140E145E000E0F
:1020B000155A14C04EF44E51146E156A1450010195
:1020C0009E5D9E6F15509F599F6F140E9E5F000E70
:1020D0009F5B9AC1A4F19BC1A5F101012A0EA26FD9
:1020E000040EA36F3FDB00090BE09EC1AAF19FC164
:1020F000ABF101012A0EA86F040EA96F7CEC17F05A
:1021000040EC22F0010E00D0120047EC01F001017A
:10211000A0A102D03F87A0913E9B3E9D3E9F3F9352
:102120003F953F9132EC22F0000901E1FBD7060E0A
:102130000101A01504E00401266B276B5FD10E514D
:102140002D1902E10F512E190BE10401266B276BAB
:1021500001013FA704D01451151101E0A0814ED117
:102160002D510E5D2E510F5901E379D00E512D5D89
:102170000401266F01010F512E590401276F14C16C
:1021800028F415C129F401012F510E5D30510F596A
:102190000CE32F510E5D146E0F513055156E145017
:1021A0000401285F1550295B17D02751295D166E51
:1021B0002A512855176E0E512F5D186E30510F554C
:1021C000196E1850165C146E19501758156E14506D
:1021D0000401285F1550295B2651285D2751295994
:1021E00004E228C426F429C427F4180ED880265502
:1021F000020E275506E2180E266F020E276F010108
:102200003F8501013FA70FD004012851261902E1A3
:102210002951271908E0180E261902E1020E271984
:1022200002E00101A08126C4B8F127C4B9F142C17E
:10223000B7F10EC1B5F10FC1B6F10101B46B0101E7
:10224000740EB26F110EB36F2DEC20F00401265105
:1022500001010E270401275101010F23CFD00E5198
:10226000295D0401246F01010F512A590401256FD2
:10227000245101012D25146E0401255101012E2147
:10228000156E2751145C0401266F01012851155861
:102290000401276F14C128F415C129F401012F513D
:1022A0000E5D30510F590CE32F510E5D146E0F511E
:1022B0003055156E14500401285F1550295B17D056
:1022C0002751295D166E2A512855176E0E512F5D24
:1022D000186E30510F55196E1850165C146E195047
:1022E0001758156E14500401285F1550295B2651AC
:1022F000285D2751295904E228C426F429C427F46B
:10230000180ED8802655020E275506E2180E266FA5
:10231000020E276F01013F8501013FA70FD0040185
:102320002851261902E12951271908E0180E26190B
:1023300002E1020E271902E00101A08104012451EB
:10234000265D2551275904E226C424F427C425F428
:1023500024C4B8F125C4B9F142C1B7F10EC1B5F139
:102360000FC1B6F10101B46B0101740EB26F110E11
:10237000B36F2DEC20F004012451265D246F25510C
:102380002759256F2451251122E024C4B8F125C412
:10239000B9F142C1B7F127C1B5F128C1B6F10101C8
:1023A000B46B01010E51295D146E2A510F55156E43
:1023B000166A176A740E1426110E1522000E1622C4
:1023C000172214C0B2F115C0B3F12DEC20F00401B6
:1023D000265101010E270401275101010F23295124
:1023E0000E5D2A510F590AE32751295D146E2A51B7
:1023F0002855156E14500E5F15500F5B04012651C1
:10240000271104E1030E0101A01521E0040126516A
:10241000271102E00101A0870101A1A107D0256BCE
:10242000970E026F980E036F046B056BB2EC37F0DA
:10243000065001010225356F07500321366F085001
:102440000421376F09500521386F3E8938D0A1A388
:102450001BD03E0EE96E010EEA6EEF50070BE82A24
:10246000F36EF350070BF36EF46EF80EEF14F310E7
:10247000EF6EF4500607000E075B085B095B010E68
:102480000401266F276B1BD03EA919D0A1B108D03B
:10249000255106E02507D890053304330333023372
:1024A000B2EC37F0065001010225356F07500321C9
:1024B000366F08500421376F09500521386F12C15B
:1024C00002F413C103F410C104F411C105F406C1F0
:1024D00006F407C107F408C108F409C109F40AC1E8
:1024E0000AF40BC10BF40CC10CF40DC10DF4040182
:1024F0000F9D0F9F0E910E930E950E97A0C10FF496
:10250000146B156B265101010627040127510101A7
:102510000723000E08230923A0A315D0A0B905D0D6
:1025200004010A6B0B6B0C6B0D6B010124A306D02D
:1025300004010607075B085B095B05D0062B072330
:102540000823092324830101A0A10DD024A106D0D2
:1025500004010607075B085B095B05D0062B072310
:1025600008230923248101013351315D345132594B
:1025700014E329512B5D146E2C512A55156E3351DD
:10258000315D166E32513455176E04011650145CCD
:10259000106F17501558116F0DD03151335D040174
:1025A000106F0101325134590401116F010E105F97
:1025B000000E115B79EC22F0F3CF00F4F4CF01F4BC
:1025C0000401400E005F000E015B800E011502E069
:1025D000006B016B1051005D1151015904E200C400
:1025E00010F401C411F40101020EA66F040EA76FCE
:1025F00063DB140E04012627000E27230E890E9B91
:102600000E8D0E9F0101A0A326D0040E04012627E3
:10261000000E2723020E166F040E176F020E186F9E
:10262000140E196F010E146E0E0EE96E040EEA6E92
:10263000EF50F00BE842E842E842E84214240F0B66
:10264000F36EF46EF346F346F346F3460F0EEF14C3
:10265000F310EF6EF4508CC21AF48DC21BF48EC2CC
:102660001CF48FC21DF418C11EF419C11FF41AC145
:1026700020F41BC121F40401226B060E236F26C433
:1026800024F427C425F424C4DFF225C4E0F2A2EC2C
:102690002DF0F3CF24F4F4CF25F40C0E0201E76FF4
:1026A000E86B02011A0EE56F040EE66FC9EC2DF01F
:1026B000F3CF12F4F4CF13F40401121F131F01011E
:1026C0004C0ED36F110ED46F27EC25F026C420F3E7
:1026D00027C421F30301060E1F6F0301180E1D6F9F
:1026E000010E1E6F31EC34F0140E0101EA6FEB6B3A
:1026F0000101020EE86F040EE96F1AEC28F00101E7
:10270000A0A30BD0040E0101EA6FEB6B0101160EC2
:10271000E86F040EE96F1AEC28F00101600ED56F26
:10272000110ED66F47EC25F026C4DBF127C4DCF18F
:10273000BBEC25F0F3CF00F4F4CF01F40101700EEF
:10274000D36F110ED46F27EC25F0020E0101EA6F52
:10275000EB6B0101000EE86F040EE96F1AEC28F034
:10276000F7EF23F0A2C1E9FFA3C1EAFF020EE926B9
:10277000000EEA22EE50ED1002E1000E9CD20401A0
:10278000FE0E016FA4C1E9FFA5C1EAFF020EE92612
:10279000000EEA22EECF18F0EFCF19F0A4C1E9FF46
:1027A000A5C1EAFF1850EE24166E1950EE20176EE0
:1027B000A2C1E9FFA3C1EAFF1650EE24146E175020
:1027C000EE20156EA2C1E9FFA3C1EAFF020EE926C1
:1027D000000EEA221450EE18026F1550EE18036F27
:1027E000006B0051146E156A050E145C000E15582E
:1027F00067E200C443F100EC01F00D0E01013D5D04
:1028000002E15BD024D0040E3D5D16E1A2C1E9FFD8
:10281000A3C1EAFF020EE926000EEA22EECF14F071
:10282000EFCF15F01450401902E11550411902E1A3
:1028300000C401F442D00BD004010251010140193F
:1028400004E1040103510101411901E036D047ECD4
:1028500001F0A2C1E9FFA3C1EAFF020EE926000EC2
:10286000EA22EECF14F0EFCF15F001011251141847
:1028700002E11351151821E1A2C1E9FFA3C1EAFF4A
:10288000EECF16F0EFCF17F01051161802E11151EC
:10289000171813E1A4C1E9FFA5C1EAFFEE5018190A
:1028A00009E1EE50191906E1EE501A1903E1EE5054
:1028B0001B1900E102E1010EFED10401002B91D7AA
:1028C000FE0E015D39E001C443F100EC01F047EC7C
:1028D00001F0FE0E0401015D2FE002C440F103C4CB
:1028E00041F10A0EE66EE66AA4C1E6FFA5C1E6FF65
:1028F000180EE66E010EE66EE7EC36F0146E060E6C
:10290000E15E1450A2C1E9FFA3C1EAFFEECF10F1CE
:10291000EDCF11F1A2C1E9FFA3C1EAFF020EE92642
:10292000000EEA22EECF12F1EDCF13F127C10EF126
:1029300028C10FF1010EBFD1A2C1E9FFA3C1EAFF77
:102940000D0EE926000EEA22EF50020B02E1000E06
:10295000B2D10001B851B91102E0000EACD10401AE
:10296000046B056B030E045D000E055901E3BED038
:1029700004C4E9FF05C4EAFF140EEA02F3CFEAFF3C
:10298000E902F3CFE9FFF450EA26800EE926000EB3
:10299000EA22100EE926000EEA22EE50ED1001E1C7
:1029A000A5D004C4E9FF05C4EAFF140EEA02F3CF80
:1029B000EAFFE902F3CFE9FFF450EA26800EE926A8
:1029C000000EEA22100EE926000EEA22EECF14F0E5
:1029D000EFCF15F0A2C1E9FFA3C1EAFF020EE9267D
:1029E000000EEA22EECF16F0EFCF17F016501418B3
:1029F00002E11750151801E074D004C4E9FF05C4C2
:102A0000EAFF140EEA02F3CFEAFFE902F3CFE9FF8F
:102A1000F450EA26800EE926000EEA220A0EE92684
:102A2000000EEA22EECF14F0EFCF15F0A2C1E9FFBD
:102A3000A3C1EAFFEECF16F0EFCF17F0165014182F
:102A400002E11750151801E04CD0A4C1E9FFA5C15F
:102A5000EAFFEECF14F0EECF15F0EECF16F0EFCF89
:102A600017F004C4E9FF05C4EAFF140EEA02F3CF2D
:102A7000EAFFE902F3CFE9FFF450EA26800EE926E7
:102A8000000EEA22EE500001141809E1EE5015186C
:102A900006E1EE50161803E1EE50171800E101E0D0
:102AA00020D0BDEC37F006C014F007C015F004C408
:102AB000E9FF05C4EAFF140EEA02F3CFEAFFE902D8
:102AC000F3CFE9FFF450EA26800EE926000EEA2251
:102AD000120EE926000EEA2214C0EEFF15C0EDFF2B
:102AE000EAD00401042B000E05233CD7006B0051F3
:102AF000146E156A050E145C000E155801E3D9D04A
:102B000000C443F100EC01F001013EA7CFD047EC37
:102B100001F0A2C1E9FFA3C1EAFF020EE926000EFF
:102B2000EA22EECF14F0EFCF15F014500101121984
:102B300002E11550131901E0B9D00A0EE66EE66AFB
:102B4000A4C1E6FFA5C1E6FF04C4E9FF05C4EAFF8E
:102B5000140EEA02F3CFEAFFE902F3CFE9FFF450E3
:102B6000EA26800EE926000EEA22E9CF14F0EACF29
:102B700015F014C0E6FF15C0E6FFE7EC36F0166E60
:102B8000060EE15E1650A2C1E9FFA3C1EAFFEECF37
:102B900014F0EFCF15F004C4E9FF05C4EAFF140EEA
:102BA000EA02F3CFEAFFE902F3CFE9FFF450EA26A5
:102BB000800EE926000EEA220A0EE926000EEA221D
:102BC00014C0EEFF15C0EDFFA2C1E9FFA3C1EAFFEB
:102BD000040EE926000EEA22EECF14F0EECF15F037
:102BE000EECF16F0EFCF17F004C4E9FF05C4EAFFFB
:102BF000140EEA02F3CFEAFFE902F3CFE9FFF45043
:102C0000EA26800EE926000EEA220C0EE926000EC6
:102C1000EA2214C0EEFF15C0EEFF16C0EEFF17C08B
:102C2000EEFFA2C1E9FFA3C1EAFF020EE926000EF2
:102C3000EA22EECF14F0EFCF15F004C4E9FF05C48B
:102C4000EAFF140EEA02F3CFEAFFE902F3CFE9FF4D
:102C5000F450EA26800EE926000EEA22100EE9263C
:102C6000000EEA2214C0EEFF15C0EDFFBDEC37F0F8
:102C700006C014F007C015F004C4E9FF05C4EAFF5C
:102C8000140EEA02F3CFEAFFE902F3CFE9FFF450B2
:102C9000EA26800EE926000EEA22120EE926000E30
:102CA000EA2214C0EEFF15C0EDFF05D00401002B91
:102CB0001ED7000E00D01200A6C1E9FFA7C1EAFF8F
:102CC000EECFDFF2EDCFE0F2A2EC2DF0F3CF14F077
:102CD000F4CF15F0A6C1E9FFA7C1EAFF14C0EEFFCB
:102CE00015C0EDFFA6C1E9FFA7C1EAFF020EE92664
:102CF000000EEA22EECFDFF2EDCFE0F2A2EC2DF0F3
:102D0000F3CF14F0F4CF15F0A6C1E9FFA7C1EAFF95
:102D1000020E14C0EBFF030E15C0EBFFA6C1E9FFC6
:102D2000A7C1EAFF040EE926000EEA22EECFE1F287
:102D3000EECFE2F2EECFE3F2EFCFE4F2B2EC2DF021
:102D400006C014F007C015F008C016F009C017F04F
:102D5000A6C1E9FFA7C1EAFF040EE926000EEA2298
:102D600014C0EEFF15C0EEFF16C0EEFF17C0EEFF59
:102D7000A6C1E9FFA7C1EAFF080EE926000EEA2274
:102D8000EECFE1F2EECFE2F2EECFE3F2EFCFE4F2FC
:102D9000B2EC2DF006C014F007C015F008C016F014
:102DA00009C017F0A6C1E9FFA7C1EAFF080EE9268E
:102DB000000EEA2214C0EEFF15C0EEFF16C0EEFFB3
:102DC00017C0EEFFA6C1E9FFA7C1EAFF0E0EE92674
:102DD000000EEA22EECFDFF2EDCFE0F2A2EC2DF012
:102DE000F3CF14F0F4CF15F0A6C1E9FFA7C1EAFFB5
:102DF0000E0E14C0EBFF0F0E15C0EBFFA6C1E9FFCE
:102E0000A7C1EAFF100EE926000EEA22EECFDFF29C
:102E1000EDCFE0F2A2EC2DF0F3CF14F0F4CF15F0EB
:102E2000A6C1E9FFA7C1EAFF100E14C0EBFF110E07
:102E300015C0EBFFA6C1E9FFA7C1EAFF120EE92604
:102E4000000EEA22EECFDFF2EDCFE0F2A2EC2DF0A1
:102E5000F3CF14F0F4CF15F0A6C1E9FFA7C1EAFF44
:102E6000120E14C0EBFF130E15C0EBFF120047EC5F
:102E700001F012C140F113C141F127C12DF128C168
:102E80002EF127C12FF128C130F129C131F12AC11A
:102E900032F129C133F12AC134F101013E51080B4D
:102EA00002E0040E01D00D0E3D6F3E913E933E9523
:102EB0003E993E9B3E9D3E9F3F913F933F953F975E
:102EC0003F89249124932497249927C10EF128C186
:102ED0000FF1E5EC38F0F3CF06F1F4CF07F1E5ECB4
:102EE00038F0F3CF08F1F4CF09F101012269236929
:102EF000010E146F156B1200A8C1E9FFA9C1EAFF0A
:102F00000D0EE926000EEA22EFCF7BF4A8C1E9FFFF
:102F1000A9C1EAFF080EE926000EEA22EECF7CF4F2
:102F2000EECF7DF4EECF7EF4EFCF7FF4A8C1E9FFC2
:102F3000A9C1EAFF040EE926000EEA22EECF80F4D2
:102F4000EECF81F4EECF82F4EFCF83F401013E9116
:102F50003E933E953EB913D0B2EC37F006C035F142
:102F600007C036F108C037F109C038F1E60E01019B
:102F70003527F50E3623050E3723000E38233D5135
:102F8000050A43E0010A08E0AAC184F4ABC185F454
:102F900004017BA1B2D0AED004017BA503D067DFD2
:102FA00000EF1FF07BA912D07CC406F17DC407F1AD
:102FB0007EC408F17FC409F10101A16B0101040E77
:102FC000A06F85EC10F053DF00EF1FF07BA31AD049
:102FD00080C40AF181C40BF182C40CF183C40DF1E9
:102FE00001010A2B000E0B230C230D230101010EFE
:102FF000A16F0101120EA06F85EC10F00101060E09
:103000003D6F01D034DF00EF1FF004017BA502D03B
:1030100000EF1FF07BA934D07C0EE96E040EEA6E3F
:10302000EE500101061909E1EE50071906E1EE50D4
:10303000081903E1EE50091900E122E006C180F40D
:1030400007C181F408C182F409C183F47CC406F18C
:103050007DC407F17EC408F17FC409F10101010EAE
:10306000A16F0101040EA06F85EC10F080C406F181
:1030700081C407F182C408F183C409F100EF1FF095
:1030800004017BA335D080C40AF181C40BF182C452
:103090000CF183C40DF101010A2B000E0B230C234C
:1030A0000D23A8C1E9FFA9C1EAFF0E0EE926000E13
:1030B000EA22EECF14F1EDCF15F104017BA90DD07A
:1030C0000101010EA16F0101100EA06F85EC10F03F
:1030D0000101070E3D6F3E990BD00101010EA16F5A
:1030E0000101120EA06F85EC10F00101060E3D6F7C
:1030F00000EF1FF0842B000E85237BA303D0842BCD
:10310000000E852301013351315D3451325914E3EE
:1031100029512B5D146E2C512A55156E3351315D9A
:10312000166E32513455176E04011650145C796FC7
:10313000175015587A6F0DD03151335D0401796FF6
:1031400001013251345904017A6F010E795F000E8A
:103150007A5B0A0EE96E010EEA6EEE50805D736FC7
:10316000EE508159746FEE508259756FEE5083594D
:10317000766F73C477F474C478F4866B84518511C8
:1031800001E181D079517A1101E17CD0800E761570
:1031900018E179C414F07AC415F0166A176A7651EA
:1031A0001718E8AE02D0173408D01450735D1550CC
:1031B0007459165075591750765903E2010E866FEF
:1031C0003DD084C414F085C415F0166A176A730ED6
:1031D000E96E040EEA6EEE501426EE501522EE5003
:1031E0001622EE5017221734000E171809E6D88061
:1031F000000E1454000E1554000E1654000E1754F1
:103200001DE28451795D186E7A518555196E1A6ADE
:103210001B6A19AE02D01A681B681B507619E8AEFB
:1032200002D0763508D07351185C74511958755115
:103230001A5876511B5802E3010E866F79C414F0B8
:103240007AC415F0166A176A76511718E8AE02D0DC
:10325000173408D01450735D1550745916507559B1
:10326000175076590FE277518425186E78518521D1
:10327000196E193404E218500008000E195402E2C5
:10328000010E866F22D0735174117511761103E10E
:10329000010E866F1AD0800E761517E179C414F0EE
:1032A0007AC415F0166A176A76511718E8AE02D07C
:1032B000173408D01450735D155074591650755951
:1032C0001750765902E2010E866F86510CE17BB5EC
:1032D00008D00101010EA16F0101100EA06F85EC55
:1032E00010F000EF1FF0060E7B1503E0C0DD00EFCD
:1032F0001FF07BB902D000EF1FF001013D510C0A15
:1033000001E152D20B0A40E00F0A3EE0010A3CE024
:10331000020A3AE0010A38E00C0A01E05AD27C0EB7
:10332000E96E040EEA6EEE50061909E1EE50071937
:1033300006E1EE50081903E1EE50091900E122E020
:1033400006C180F407C181F408C182F409C183F485
:103350007CC406F17DC407F17EC408F17FC409F185
:103360000101010EA16F0101040EA06F85EC10F0A8
:1033700080C406F181C407F182C408F183C409F155
:1033800000EF1FF0070E3D6F0E512D5D0401716FB0
:1033900001010F512E590401726F800E72150CE05D
:1033A00001012751295D146E2A512855156E1450BC
:1033B000040171271550722371C414F072C415F002
:1033C000166A176A060EE96E010EEA6EEE501424B4
:1033D0006D6FEE5015206E6FEE5016206F6FEE5031
:1033E0001720706F7C0EE96E040EEA6EEE506D5D74
:1033F000146EEE506E59156EEE506F59166EEE50FB
:103400007059176E0001800E171409E00101A16BBD
:103410000101100EA06F85EC10F000EF1FF001010C
:103420002F510E5D146E0F513055156E166A176AC6
:1034300015AE02D016681768060EE96E010EEA6E28
:103440001450EE5C04016D6F1550EE586E6F1650FF
:10345000EE586F6F1750EE58706F01012F510E5DCF
:1034600030510F5911E22751295D146E2A51285508
:10347000156E166A176A145004016D5F15506E5B65
:1034800016506F5B1750705B6D0EE96E040EEA6E9E
:10349000EE5004017C5D6D6FEE507D596E6FEE5005
:1034A0007E596F6FEE507F59706F7035000E701936
:1034B00009E6D880000E6D55000E6E55000E6F5552
:1034C000000E705501E397D001012751295D146E5C
:1034D0002A512855156E166A176A04016D51145C3D
:1034E0006E5115586F5116587051175801E283D01C
:1034F0000101249724993F912FC171F430C172F4D6
:1035000004016D5101012F2704016E510101302387
:103510000401715101010E5D0401725101010F5945
:103520001BE32F510E5D30510F5915E20E512F5DE7
:10353000146E30510F55156E00011450010106270D
:103540000001155001010723000E082309232FC194
:103550000EF130C10FF12FD02751295D146E2A5181
:103560002855156E0E5114240401716F01010F517D
:1035700015200401726F01012F510401715D0101D9
:1035800030510401725917E2715101012F5D146E1F
:10359000305104017255156E0001145001010627C7
:1035A0000001155001010723000E082309232FC134
:1035B0000EF130C10FF1010129512F5D2A5130590F
:1035C0000AE32751295D146E2A512855156E1450AF
:1035D0002F5F1550305B29510E5D2A510F590AE3B8
:1035E0002751295D146E2A512855156E14500E5F0F
:1035F00015500F5B3FD001010E512F1902E10F5101
:10360000301938E024A735D024A932D02F510E5DCF
:10361000146E0F513055156E166A176A15AE02D02A
:10362000166817681450065F1550075B1650085B44
:103630001750095B2F510E5D30510F5914E227517D
:10364000295D146E2A512855156E166A176A15AE33
:1036500002D0166817681450065F1550075B1650A5
:10366000085B1750095B2FC10EF130C10FF13F8588
:10367000248924872D512F1902E12E5130191AE186
:103680003FB702D03E9916D0060EE96E010EEA6EE3
:10369000EE5004017C1909E1EE507D1906E1EE506F
:1036A0007E1903E1EE507F1900E104E101013E992A
:1036B0003F9724910101145115110CE1A8C1E9FFB4
:1036C000A9C1EAFF0E0EE926000EEA22EE50ED1027
:1036D00001E03F83A8C1E9FFA9C1EAFF0E0EE92678
:1036E000000EEA22EECF14F1EDCF15F1080E3D5D8C
:1036F00029E1060EE96E010EEA6EEE5004017C1916
:1037000009E1EE507D1906E1EE507E1903E1EE501D
:103710007F1900E116E1B2EC37F006C035F107C0C1
:1037200036F108C037F109C038F1F30E0101352731
:10373000FA0E3623020E3723000E38233E89090E77
:103740003D6F31D0090E3D5D16E104017BB112D011
:103750007CC406F17DC407F17EC408F17FC409F181
:103760000101A16B0101140EA06F85EC10F037EC84
:1037700017F046D318D00A0E3D5D15E1060EE96E2E
:10378000010EEA6EEE5004017C1909E1EE507D193C
:1037900006E1EE507E1903E1EE507F1900E102E1EF
:1037A00037EC17F02DD316D0060EE96E010EEA6E37
:1037B000EE5004017C1909E1EE507D1906E1EE504E
:1037C0007E1903E1EE507F1900E102E137EC17F0BA
:1037D00017D300D004017BBB13D30B0E01013D5D59
:1037E00001E10ED30A0E3D5D01E10AD30C0E3D5DF1
:1037F00001E106D3AA51AB1101E14ED204017835A3
:1038000004E277510008000E785501E2E8D0A8C123
:10381000E9FFA9C1EAFF0C0EE926000EEA22EF50EB
:10382000F00BE842E842E842E842040DF350146E1F
:10383000156A7751145C0301226F04017851155801
:103840000301236FA5EC34F0040177510101AA278D
:10385000040178510101AB23AA510401795D0101F2
:10386000AB5104017A5904E279C4AAF17AC4ABF1EC
:103870000101AA510A27AB510B23000E0C230D2383
:103880003151AA25146E3251AB21156E14502B5DA7
:1038900015502C5946E231512B5D0401716F010125
:1038A00032512C590401726F010E7127000E7223E0
:1038B00071C4B8F172C4B9F10101B76B0101B56906
:1038C000B66942C1B4F131C1B2F132C1B3F1C5DB65
:1038D000040171510101AA5D0101B86F0401725127
:1038E0000101AB590101B96F0101B76B0101B56964
:1038F000B66942C1B4F129C1B2F12AC1B3F1ADDB5D
:10390000040171510101AA5D146EAB51040172559D
:10391000156E010129511424316F2A511520326F7F
:1039200015D0AAC1B8F1ABC1B9F10101B76B010162
:10393000B569B66942C1B4F131C1B2F132C1B3F176
:103940008CDB0101AA513127AB513223221D01E149
:10395000231D44E0AA51225FAB51235B165122255F
:103960000401716F0101175123210401726F800E50
:10397000721504E001012269236930D00101233569
:1039800004E222510008000E235528E3040171517E
:1039900001010A270401725101010B23000E0C23BF
:1039A0000D230401715101013127040172510101FC
:1039B000322331512B5D32512C590EE229512B5DAE
:1039C000146E2C512A55156E010E1426000E152268
:1039D0001450315F1550325B226923695DD178350F
:1039E00004E277510008000E785501E355D101013A
:1039F000AA5104017725146E0101AB51040178210D
:103A0000156E1450795D15507A5909E27751795D38
:103A10000101AA6F040178517A590101AB6FA8C165
:103A2000E9FFA9C1EAFF0C0EE926000EEA22EF50D9
:103A3000F00BE842E842E842E842040DF35003018B
:103A4000226F236BA5EC34F001013151040177257D
:103A5000166E0101325104017821176E16500101D2
:103A6000AA25146E1750AB21156E14502B5D1550FE
:103A70002C596EE231512B5D146E2C513255156E5E
:103A8000010E1426000E152204017751145C716F8B
:103A900078511558726F800E721531E171C4B8F10A
:103AA00072C4B9F10101B76B0101B569B66942C1D0
:103AB000B4F101013151040177250101B26F010117
:103AC0003251040178210101B36FC7DA0401715149
:103AD0000101AA5D0101B86F040172510101AB59E6
:103AE0000101B96F0101B76B0101B569B66942C146
:103AF000B4F129C1B2F12AC1B3F1AFDA28D0AAC119
:103B0000B8F1ABC1B9F10101B76B0101B569B66993
:103B100042C1B4F10101315104017725146E010154
:103B2000325104017821156E010129512B5D166E69
:103B30002C512A55176E010E1626000E1722010170
:103B40001650145CB26F17501558B36F86DA18D040
:103B5000AAC1B8F1ABC1B9F10101B76B0101B569F7
:103B6000B66942C1B4F10101315104017725010167
:103B7000B26F01013251040178210101B36F6DDA96
:103B80000101221D01E1231D09E177C422F178C45E
:103B900023F1AAC116F1ABC117F17ED02251040165
:103BA000775D01012351040178593DE2775101010C
:103BB000AA25146E040178510101AB21156E225122
:103BC0001625166E23511721176E1450165C1550CA
:103BD00017580FE3040177510101AA25186E04015B
:103BE00078510101AB21196E2251185C23511958EB
:103BF00005E2AAC116F1ABC117F110D0225116256A
:103C0000146E23511721156E04017751145C0101C4
:103C1000166F0401785115580101176F77C422F10E
:103C200078C423F139D077510101AA25146E04011B
:103C300078510101AB21156E22511625166E2351C4
:103C40001721176E1450165C1550175825E2225193
:103C50001625146E23511721156E04017751145C3B
:103C60007851155819E377510101AA25186E0401FE
:103C700078510101AB21196E2251185C166E235147
:103C80001958176E1651165C146E17511758156E89
:103C9000145016271550172304018451851124E070
:103CA000070E01013D5D04E031C133F132C134F151
:103CB0003EAF0BD00101010EA16F0101100EA06FEC
:103CC00085EC10F047EC01F00FD03E8F3EBD0CD0DC
:103CD0003E8DBDEC37F006C03BF107C03CF10F0E46
:103CE00001013B27000E3C2304017BA189D00AC1BE
:103CF00014F00BC115F00CC116F00DC117F0142A09
:103D0000000E15221622172284C418F085C419F05B
:103D10001A6A1B6A800EE96E040EEA6EEE501826CF
:103D2000EE501922EE501A22EE501B221450181891
:103D300009E11550191806E116501A1803E1175039
:103D40001B1800E15DE101010A2B000E0B230C237F
:103D50000D233D51090A41E0010A1EE00F0A0EE061
:103D6000010A01E044D00C0E3D6F0101010EA16F6C
:103D70000101110EA06F85EC10F042D00B0E3D6FCB
:103D8000BDEC37F006C03BF107C03CF11E0E01014F
:103D90003B27000E3C232CD0060EE96E010EEA6E86
:103DA000EE5004017C1909E1EE507D1906E1EE5058
:103DB0007E1903E1EE507F1900E10BE10101A16BD7
:103DC0000101100EA06F85EC10F037EC17F018D041
:103DD00003D001010A0E3D6F0BD00101A16B01015F
:103DE000100EA06F85EC10F037EC17F009D000D062
:103DF0000101010EA16F0101100EA06F85EC10F002
:103E00001200ACC143F100EC01F00101AD51AE1163
:103E100003E1010EAD6FAE6B27512B5D04012A6FDC
:103E2000010128512C5904012B6F010E2A5F000E4D
:103E30002B5B0101AD51AF25146EAE51B021156E53
:103E4000040114502A5D15502B5902E2000E04D1D2
:103E500047EC01F0030E0101B11502E1030EB113AD
:103E6000AFC12EF4B0C12FF4AD51AF25146EAE51D9
:103E7000B021156E145004012A5F15502B5B01010F
:103E8000B1A314D0B1A10DD02AC414F02BC415F0E5
:103E9000D89015321432145004012E2715502F23B8
:103EA00005D004012A512E272B512F230101275120
:103EB00004012E252A6F0101285104012F212B6FA7
:103EC000010E2A27000E2B2331C12CF432C12DF410
:103ED0000101221D01E1231D22E022511625146E4D
:103EE00023511721156E145004012C2715502D2332
:103EF0002C5101012B5D04012D5101012C590FE2C0
:103F000029512B5D146E2C512A55156E010E142665
:103F1000000E1522145004012C5F15502D5B040176
:103F20002C510101335D04012D510101345917E277
:103F300004012A510101335D04012B51010134595F
:103F40000DE2B1A503D0000E87D008D02AC433F10A
:103F50002BC434F12AC431F12BC432F126D03351B1
:103F600004012C5D0101345104012D5916E22A513E
:103F70000101295D04012B5101012A590DE2B1A56E
:103F800003D0000E69D008D02AC433F12BC434F119
:103F90002AC431F12BC432F108D02AC433F12BC426
:103FA00034F12AC431F12BC432F10101335104013F
:103FB0002C5D0101345104012D5930E2040E010140
:103FC000B1152CE0295104012C5D0101B86F0101EC
:103FD0002A5104012D590101B96F42C1B7F129C11C
:103FE000B5F12AC1B6F142C1B4F12AC4B2F12BC471
:103FF000B3F133D801013351315D345132590EE2FE
:1040000004012A510101295D146E2A5104012B5526
:10401000156E14500101315F1550325B2AC429F12D
:104020002BC42AF127C10EF128C10FF127C12FF1AE
:1040300028C130F127C12DF128C12EF1070E010151
:104040003D5D08E10101010EA16F0101100EA06F9D
:1040500085EC10F0010E00D012000101B7512FE0E5
:10406000010A01E059D0B45116E0010A01E026D05E
:10407000B8C1E6FFB9C1E6FFB5C1E6FFB6C1E6FFCC
:10408000B2C1E6FFB3C1E6FFE7EC36F0146E060EF0
:10409000E15E145013D0B3BF06D0B2C1D3F1B3C1A7
:1040A000D4F127EC25F0B8C1EAF1B9C1EBF1B5C103
:1040B000E8F1B6C1E9F11AEC28F000D02DD0B451E6
:1040C00016E0010A01E027D0B6BF06D0B5C1D5F190
:1040D000B6C1D6F147EC25F0B8C1E5F1B9C1E6F1BA
:1040E000B2C1E3F1B3C1E4F1CAEC27F014D0B8C116
:1040F000E1F1B9C1E2F1B5C1DFF1B6C1E0F1B2C1A0
:10410000DDF1B3C1DEF157EC26F0A9EC27F0000990
:1041100001E1FBD700D000D012000101BC5118E032
:10412000010A01E067D0C0C1E6FFC1C1E6FFBDC121
:10413000E6FFBEC1E6FFBFC1E6FFBAC1E6FFBBC1F5
:10414000E6FF12EC37F0146E070EE15E145052D009
:10415000BBBF06D0BAC1D3F1BBC1D4F127EC25F067
:10416000100E0401106F116B0101C051C11141E02B
:10417000040110510101C05D040111510101C15937
:1041800004E2C0C110F4C1C111F410C4E6FF11C4AF
:10419000E6FFBDC1E6FFBEC1E6FFBFC1E6FF000E00
:1041A000E66E040EE66E12EC37F0146E070EE15E5A
:1041B000145010C4EAF111C4EBF10101000EE86FD4
:1041C000040EE96F1AEC28F010C414F011C415F0B5
:1041D000166A14500101BD271550BE231650BF2387
:1041E000040110510101C05F040111510101C15BC3
:0641F000BBD700D0120055
:0A41F6008B8294929496949A948818
:104200008B8094909E96200EC66EC78CC79E5EECE7
:1042100028F001011D0EF16F99EC28F0146E14C006
:1042200005F4080E04010515F2E1051D010BEFE18F
:104230000101010EC66FC26BC36B0101F56B010179
:10424000080EF46F0CEC29F00101F56B0101090E69
:10425000F46F0CEC29F001013B0EF56F01010C0E1F
:10426000F46F0CEC29F00101110EF56F01010D0E38
:10427000F46F0CEC29F001013B0EF56F01010A0E01
:10428000F46F0CEC29F00101110EF56F01010B0E1A
:10429000F46F0CEC29F001013D0EF56F0101040EE5
:1042A000F46F0CEC29F00101110EF56F0101050E00
:1042B000F46F0CEC29F001013D0EF56F0101020EC7
:1042C000F46F0CEC29F00101110EF56F0101030EE2
:1042D000F46F0CEC29F00101E76B08EC28F0010108
:1042E000FD6B020EFE6F73EC29F001010D0EF56FF0
:1042F0000101F46B0CEC29F00101320EF56F0101A4
:10430000020EF46F0CEC29F00101120EF56F0101A1
:10431000040EF46F0CEC29F00101400EF56F010161
:10432000030EF46F0CEC29F001013F0EF56F010153
:10433000090EF46F0CEC29F00101120EF56F01016A
:10434000060EF46F0CEC29F001010C0EF56F010163
:10435000070EF46F0CEC29F00101EE0EF56F010170
:104360000A0EF46F0CEC29F00101050EF56F010146
:104370000B0EF46F0CEC29F00101040EFD6F030E1F
:10438000FE6F73EC29F0B9C2F5F10101040EF46F70
:104390000CEC29F0BAC2F5F10101050EF46F0CEC3A
:1043A00029F0BBC2F5F10101020EF46F0CEC29F00B
:1043B000BCC2F5F10101030EF46F0CEC29F0BDC293
:1043C000F5F10101F46B0CEC29F0BEC2F5F101012D
:1043D000010EF46F0CEC29F00101F56B0101150ED3
:1043E000F46F0CEC29F00101120EF16F99EC28F03A
:1043F000146E14C0C7F10101FB6B010EFC6F0101CB
:10440000100EFA6F48EC29F00101720EFB6F340EAA
:10441000FC6F0101140EFA6F48EC29F00101FB6BEF
:10442000FC6B0101FA6B48EC29F00101FD6BFE6B9E
:1044300073EC29F00101040EF96F01011F0EF86FF2
:1044400034EF29F00101010EF36FC7EC28F0F3CF30
:1044500014F0F4CF15F000011450040B01E0010E2C
:1044600000D0120001011F0EF16F99EC28F0146EBC
:1044700000011450080B080A01E0010E00D01200E0
:104480000101C65101E034D0010EC66FC2C11CF457
:10449000C3C11DF404011C5F000E1D5B1CC414F09D
:1044A0001DC415F0166A176AD8803B0E1454110EFD
:1044B0001554000E1654000E175404E23B0E1C6FE8
:1044C000110E1D6F0101400EF96F01011E0EF86FF4
:1044D00034EC29F01CC4F5F101010C0EF46F0CEC66
:1044E00029F01DC4F5F101010D0EF46F0CEC29F05B
:1044F00012000101190EFD6F010EFE6F73EC29F021
:104500000101190EF16F99EC28F0146E14C04FF4EC
:104510000E0E0101FD6FFE6B73EC29F001010E0E12
:10452000F16F99EC28F0146E14C051F401010F0ED4
:10453000F16F99EC28F0146E14C052F40101190EB9
:10454000FD6F010EFE6F73EC29F00101190EF16F82
:1045500099EC28F0146E04014F510001145CD0E175
:104560000C0E0101FD6FFE6B73EC29F001010C0EC6
:10457000F16F99EC28F0146E14C04FF401010D0E88
:10458000F16F99EC28F0146E14C050F404015151ED
:104590004F5D5251505920E23B0E186E110E196EAC
:1045A0001A6A1B6A4F51515D1C6E525150551D6E57
:1045B0001E6A1F6A1C50185C146E1D501958156E27
:1045C0001E501A58166E1F501B58176E14C0F3FF5A
:1045D00015C0F4FF1BD01AD04F51511902E15051B0
:1045E000521906E13B0EF36E110EF46E0FD00ED091
:1045F00051514F5D146E50515255156E1406000EF8
:10460000155A14C0F3FF15C0F4FF00D012000101C9
:10461000190EFD6F010EFE6F73EC29F00101190EEA
:10462000F16F99EC28F0146E14C014F40101FD6BC5
:10463000FE6B73EC29F00401145102E1000E8FD0DF
:104640000101C65103E11CDF000E89D0C2C1C4F1D3
:10465000C3C1C5F1C4C1F5F10101F46B0CEC29F043
:10466000C5C1F5F10101010EF46F0CEC29F0140E37
:104670000101E56FE66B0101000EE36F040EE46FCC
:10468000CAEC27F012C4DFF213C4E0F2A2EC2DF062
:10469000F3CF12F4F4CF13F400C414F001C415F0F6
:1046A000166A176AD8803B0E1454110E1554000E6A
:1046B0001654000E17541BE3040104010051010BB2
:1046C00016E1040104010551800B11E1040104010C
:1046D0000451100B0CE10401EE0ED8800255050EBA
:1046E000035505E3040104010451800B01E1FF00BF
:1046F00000C4C2F101C4C3F1060EE66EE66A0C0EF8
:10470000E66E040EE66EC8C1E9FFC9C1EAFFE9CF53
:1047100014F0EACF15F014C0E6FF15C0E6FFE7EC91
:1047200036F0166E060EE15E1650CAC1E9FFCBC127
:10473000EAFFEF68080E0401135D0DE10401125158
:1047400004E0060E0401125D06E1CAC1E9FFCBC117
:10475000EAFF12C4EFFF0101C66B010E00D0120088
:1047600001013E0EF56F0101020EF46F0CEC29F011
:104770000101110EF56F0101030EF46F0CEC29F02D
:104780004B0E0101CF27110ED023CFC1F5F101014E
:10479000060EF46F0CEC29F0D0C1F5F10101070E03
:1047A000F46F0CEC29F0060E0101EA6FEB6BCCC143
:1047B000E8F1CDC1E9F11AEC28F0060E0101EA6F2B
:1047C000EB6B0101B90EE86F020EE96F1AEC28F0ED
:1047D0000101080EE76F08EC28F00101CE5102E15B
:1047E000000E01D0060E0101E76F08EF28F001016D
:1047F000800EF96F01011F0EF86F34EC29F00101F2
:10480000800EF76F01011F0EF66F20EC29F00101F9
:104810000A0EF76F01011C0EF66F20EC29F0010162
:10482000080EF96F01011F0EF86F34EC29F0050E28
:104830000101C75D04E0060EC75D01E0D7D00401A9
:104840004F6B506B01011C0EF16F99EC28F0146E48
:104850000A0E000114140AE104014F2B000E50232C
:10486000E80E4F5D030E505901E2ECD701011C0E1A
:10487000F16F99EC28F0146E00011450020B07E15F
:104880000401E80E4F5D030E505901E2AFD0010163
:10489000080EF76F01011F0EF66F20EC29F00101E1
:1048A000F16B99EC28F0146E14C051F40101010E63
:1048B000F16F99EC28F0146E14C052F40101060E49
:1048C000F16F99EC28F0146E14C053F40101070E37
:1048D000F16F99EC28F0146E14C054F40401532BBA
:1048E000000E542353C4F5F10101F46B0CEC29F0D4
:1048F00054C4F5F10101010EF46F0CEC29F0070E20
:104900000101E56FE66B0101550EE36F040EE46FE4
:1049100041DB04015C6B100E5C5D5BE201011C0E6F
:10492000F16F99EC28F0146E00011450020B50E066
:1049300004015851200B4CE00101800EF96F010178
:104940001F0EF86F34EC29F00101800EF76F0101A2
:104950001F0EF66F20EC29F001010A0EF76F01011E
:104960001C0EF66F20EC29F00101080EF96F010111
:104970001F0EF86F34EC29F001011C0EF16FD9DB2A
:10498000146E0A0E0001141401E1F6D70101080E9D
:10499000F76F01011F0EF66F20EC29F053C4F5F1FB
:1049A0000101F46B0CEC29F054C4F5F10101010E86
:1049B000F46F0CEC29F0070E0101E56FE66B0101C5
:1049C000550EE36F040EE46FE5DA04015C2BA3D708
:1049D00000D051C4F5F10101F46B0CEC29F052C484
:1049E000F5F10101010EF46F0CEC29F01200140E28
:1049F0000101156AC425146EC55115221450D12524
:104A00000401166F15500101D2210401176F16C45D
:104A100014F017C415F0166A176AD8803B0E1454A8
:104A2000110E1554000E1654000E175404E23C0EDD
:104A3000165F110E175B16C4F5F10101F46BECDB88
:104A400017C4F5F10101010EF46F0CEF29F001011B
:104A5000020EF16F6EDB146E14C04FF40101030EF1
:104A6000F16F67DB146E14C050F4D3C1F5F101018E
:104A7000020EF46FD1DBD4C1F5F10101030EF46F26
:104A8000CBDB4FC4F3FF50C4F4FF00D01200010190
:104A9000F16B4FDB146E14C04FF40101010EF16F86
:104AA00048DB146E14C050F4D5C1F5F10101F46B6C
:104AB000B3DBD6C1F5F10101010EF46FADDB4FC4DC
:104AC000F3FF50C4F4FF00D01200140E0101156A68
:104AD000C425146EC55115221450D7250401166F34
:104AE00015500101D8210401176F16C414F017C422
:104AF00015F0166A176AD8803B0E1454110E15541F
:104B0000000E1654000E175404E23C0E165F110EF0
:104B1000175B0101F16B0DDB146E14C018F4010179
:104B2000010EF16F06DB146E14C019F416C4F5F112
:104B30000101F46B71DB17C4F5F10101010EF46F93
:104B40006BDBD9C1DBF1DAC1DCF115D8F3CF16F498
:104B5000F4CF17F418C4F5F10101F46B5DDB19C44F
:104B6000F5F10101010EF46F57DB16C4F3FF17C412
:104B7000F4FF00D012000401516B526B536B546B65
:104B80000101F16BD6DA146E14C04FF40101010E6D
:104B9000F16FCFDA146E14C050F40101DB51DC1157
:104BA00052E0140ED880DB55000EDC5505E20401FE
:104BB000140E556F566B04D0DBC155F4DCC156F4AE
:104BC00055C4E5F156C4E6F10101570EE36F040E3A
:104BD000E46FE0D9040155510101DB5F0401565136
:104BE0000101DC5B040155A10AD0570E5525E96E81
:104BF000040E5621EA6EEF6A552B000E5623570E0F
:104C00006B6F040E6C6F555156111CE06BC4E9FFBD
:104C10006CC4EAFF020E6B27000E6C23EECF14F07B
:104C2000EFCF15F000011450040151270001155079
:104C300004015223000E53235423020E555F000E2D
:104C4000565BE1D7AAD74FC4F5F10101F46BE4DA62
:104C500050C4F5F10101010EF46FDEDA51C414F015
:104C600052C415F0166A176A53C418F054C419F0E8
:104C70001A6A1B6A145018240401516F1550192028
:104C8000526F16501A20536F17501B20546F5351F8
:104C900051275451522351C414F052C415F0141E1C
:104CA000151E14C0F3FF15C0F4FF00D0120004015C
:104CB000536B546B0101DEAF11D00401010E536F31
:104CC0000101020EF16F35DA146E14C0DDF101013D
:104CD000030EF16F2EDA146E14C0DEF10101E0AFA5
:104CE00010D00401010E546F0101F16B22DA146E31
:104CF00014C0DFF10101010EF16F1BDA146E14C054
:104D0000E0F10101010ED880E155000EE25566E3A5
:104D1000040154510DE10101F16B0BDA146E14C062
:104D20004FF40101010EF16F04DA146E14C050F457
:104D3000040153510EE10101020EF16FFAD9146E14
:104D400014C051F40101030EF16FF3D9146E14C0B5
:104D500052F4DFC1F5F10101F46B5EDAE0C1F5F167
:104D60000101010EF46F58DADDC1F5F10101020E07
:104D7000F46F52DADEC1F5F10101030EF46F4CDA83
:104D80000101E1C114F0E2C115F0E107000EE25BA0
:104D90001450151005E0EAD80101E76F39D9F0D7B2
:104DA000040154510BE14FC4F5F10101F46B34DA05
:104DB00050C4F5F10101010EF46F2EDA04015351D4
:104DC0000CE151C4F5F10101020EF46F25DA52C471
:104DD000F5F10101030EF46F1FDABAD0040153514B
:104DE00016E00101DD51E1250401516F0101DE51A1
:104DF000E2210401526F51C4F5F10101020EF46F7A
:104E00000BDA52C4F5F10101030EF46F05DADFC1CC
:104E100014F0E0C115F01406000E155A14500101EB
:104E2000E1271550E22301011F0EF16F82D9146EA4
:104E3000000114BAF8D7DFC1F5F10101100EF46FCB
:104E4000EBD9E0C1F5F10101110EF46FE5D9DDC137
:104E5000F5F10101140EF46FDFD9DEC1F5F10101A6
:104E6000150EF46FD9D9DFC114F0E0C115F0166A40
:104E7000176AD8803B0E1454110E1554000E1654A8
:104E8000000E175415E3E1C118F0E2C119F01A6AD7
:104E90001B6AD8803B0E1854110E1954000E1A5478
:104EA000000E1B5405E23C0E0101E15F110EE25BB6
:104EB000E1C1F5F10101120EF46FAED9E2C1F5F1D5
:104EC0000101130EF46FA8D90101100EF76F010153
:104ED0001F0EF66FB5D90101200EF96F01011F0EEB
:104EE000F86FC2D90401545133E00101E12B000EE7
:104EF000E223DFC114F0E0C115F0166A176AD8800A
:104F00003B0E1454110E1554000E1654000E175477
:104F100014E3E1C118F0E2C119F01A6A1B6AD880E3
:104F20003B0E1854110E1954000E1A54000E1B5447
:104F300004E23C0EE15F110EE25BE1C1F5F101011B
:104F4000F46B6AD9E2C1F5F10101010EF46F64D985
:104F5000120001011F0EF16FECD8146E0001145005
:104F6000200B200A01E0010E00D012008B929E96C9
:104F70003A0EC96E9EA6FED79E96C9CF55F4C96A51
:104F80009EA6FED79E96C9CF55F48B82040155513B
:104F900000D012008B929E963A0EC96E04018F6B60
:104FA000906B0101E351E41103E0E307000EE45BC1
:104FB0009EA6FED79E96C9CF91F40101E55104014A
:104FC0008F5D0101E651040190591BE2C96A8F2BE4
:104FD000000E90230101E351E4110DE0E32B000EDC
:104FE000E4239EA6FED79E96C950E3C1E9FFE4C123
:104FF000EAFFEF6E05D09EA6FED79E96C9CF91F42C
:10500000DCD78B828FC4F3FF90C4F4FF00D0120072
:105010008B929E967A0EC96E9EA6FED79E96C9CF9B
:1050200063F4E7C1C9FF9EA6FED79E96C9CF63F47D
:105030008B8212008B929E967A0EC96E9EA6FED728
:105040009E96C9CF63F40101EA51EB1111E0E8C16A
:10505000E9FFE9C1EAFFEF50C96EE82B000EE92332
:10506000EA07EB5B9EA6FED79E96C9CF63F4EBD70B
:105070008B8212008B929E967A0EC96E9EA6FED7E8
:105080009E96C9CF00F40101EF51F01115E0ECC17B
:10509000F6FFEDC1F7FFEEC1F8FF0800F550C96E4D
:1050A000EC2B000EED23EE23EF07F05B9EA6FED760
:1050B0009E96C9CF00F4E7D78B8212000101200E23
:1050C000F76F01011E0EF66FBBD8010E0401016FD0
:1050D000026B040101C414F002C415F00107000EB4
:1050E000025B1450151006E00A0EE66E12EC39F061
:1050F000E552EFD78B929E96C9689EA6FED79E96E4
:10510000C9CF00F48B82010E0401036F046B04010C
:1051100003C414F004C415F00307000E045B14501C
:10512000151006E00A0EE66E12EC39F0E552EFD7E4
:1051300012008B929E96F1C1C9FF9EA6FED79E9645
:10514000C9CF8FF4C96A9EA6FED79E96C9CF8FF4A9
:105150008B8204018F5100D012008B929E96F2C177
:10516000C9FF9EA6FED79E96C9CF02F4C96A9EA625
:10517000FED79E96C9CF02F4C96A9EA6FED79E9618
:10518000C9CF02F48B820401025100D01200010148
:10519000140EFD6F020EFE6FA6D8F3C1F5F10101EA
:1051A000140EF46F39D80101010EF56F0101120ED2
:1051B000F46F32D801010A0EFD6F030EFE6F93D813
:1051C00001010A0EF26FC9DF146E000114B0F8D7A6
:1051D0000101140EFD6F020EFE6F85D80101F56B03
:1051E0000101120EF46F18D80101180EF26FB5DF2D
:1051F000146E14C000F40101190EF26FAEDF146ECC
:1052000014C001F40101FD6BFE6B6DD800C4F3FF07
:1052100001C4F4FF00D012008B929E96400E010153
:10522000F411C96E9EA6FED79E96C9CF8FF4F5C124
:10523000C9FF9EA6FED79E96C9CF8FF48B8212001F
:105240008B929E96A00E0101F611C96E9EA6FED706
:105250009E96C9CF5DF4F7C1C9FF9EA6FED79E9664
:10526000C9CF5DF48B8212008B929E96800E010155
:10527000F811C96E9EA6FED79E96C9CF5DF4F9C1FE
:10528000C9FF9EA6FED79E96C9CF5DF48B82120001
:105290000101140EFD6F020EFE6F25D8FAC1F5F163
:1052A0000101140EF46FB8DFFBC1F5F10101160E18
:1052B000F46FB2DFFCC1F5F10101170EF46FACDF42
:1052C00001010A0EFD6F030EFE6F0DD801010A0EDB
:1052D000F26F43DF146E000114B0F8D70101FD6BCB
:1052E000FE6B73EF29F00101030EF76F01011F0E32
:1052F000F66FA6DFFEC1F9F101011F0EF86F34EF62
:1053000029F00101040EF76F01011F0EF66F98DFFF
:1053100001011D0EF16F0DDF146E000114B4F8D7FA
:1053200001011F0EF16F05DF146E000114B6F8D7EE
:105330000101200EF96F01011E0EF86F34EF29F004
:105340000101200EF76F01011E0EF66F79DF0101DA
:105350001D0EF16FEEDE146E000114A0F8D70101EE
:10536000040EF96F01011F0EF86F34EF29F00101EF
:10537000150EFD6F030EFE6FB6DFFFC1F5F10101E3
:10538000150EF46F49DF0101FD6BFE6B73EF29F021
:105390000101150EFD6F030EFE6FA5DF0101150E55
:1053A000F16FC7DE146E14C000F40101FD6BFE6BDB
:0A53B0009ADF0401005100D0120042
:0653BA00C2CF0FF4D5CFB5
:1053C00011F4D6CF13F4D7CF12F4010EC26E880EAB
:1053D000D56E0401006B0401076B086B096B0A6B47
:1053E0000401056B066BE5EC38F0F3CF0BF4F4CF5A
:1053F0000CF404010D6B0E6B0CAF02D00D690E693D
:10540000D76AD66AC2840400C2B4FED7D6CF03F4EA
:10541000D7CF04F4E5EC38F0F3CF01F4F4CF02F485
:105420000401035104010727040104510401082366
:10543000000E09230A23800E0401075D960E085909
:10544000980E0959000E0A5901E27DD0E5EC38F0BA
:10545000F3CF14F0F4CF15F0166A176A15AE02D028
:105460001668176814C0E6FF15C0E6FF16C0E6FF11
:1054700017C0E6FFE5EC38F0E552E7CF17F0E5524C
:10548000E7CF16F0E552E7CF15F0E552E7CF14F07D
:10549000F3CF18F0F4CF19F01A6A1B6A19AE02D0D4
:1054A0001A681B680F0E1F0B07E0D89018361936C4
:1054B0001A361B36E806F9E1185014121950151265
:1054C0001A5016121B50171214C0E6FF15C0E6FF43
:1054D00016C0E6FF17C0E6FFE5EC38F0E552E7CF6F
:1054E00017F0E552E7CF16F0E552E7CF15F0E55299
:1054F000E7CF14F0F3CF1CF0F4CF1DF01E6A1F6A43
:105500001DAE02D01E681F681E0E1F0B07E0D8904C
:105510001C361D361E361F36E806F9E11C501412E3
:105520001D5015121E5016121F5017121450040150
:105530000B1B155004010C1B165004010D1B1750BA
:1055400004010E1B45D0040103510401051904E1B7
:10555000040104510401061901E152D70401035169
:105560000401055D166E065104010455176E040111
:10557000040101511624146E040104010251172084
:10558000156E14C0E6FF15C0E6FFDEEC38F0E552FC
:10559000E55203C405F404C406F40401D8900B37A3
:1055A0000C370D370E37E5EC38F0F3CF14F0F4CFAD
:1055B00015F0D890155004E6000E145C400E1558F6
:1055C00002E304010B810401002B01E101D018D793
:1055D0000FC4C2FF12C4D7FF13C4D6FF11C4D5FF36
:1055E0000BC406F00CC407F00DC408F00EC409F09B
:1055F00000D012000401056B066B006B016B026B9F
:10560000036B0201C9C2E9FFCAC2EAFFC92B000E3F
:10561000CA23EFCF04F4EF5001E18CD0040106510E
:10562000030801E287D0300E045F055106E1045102
:10563000090802E2000EB5D071D0030E055D36E117
:10564000FE0E045D02E0000EACD0D880050E0055C1
:10565000050E0155020E0255000E035502E2000E22
:10566000A0D00A0E0103F3CF16F0640E0203F3502C
:1056700016240025E66ECBC2E9FFCCC2EAFFE9CFD3
:1056800014F0EACF15F00651062B0F011424E96E31
:10569000000E1520EA6EE552E750EF6E0401056B2F
:1056A000006B016B026B036BACD738D0FE0E045D50
:1056B00030E1D880050E0055050E0155020E025549
:1056C000000E035502E2000E6CD00A0E0103F3CF68
:1056D00016F0640E0203F35016240025E66ECBC2CA
:1056E000E9FFCCC2EAFFE9CF14F0EACF15F006518A
:1056F000062B0F011424E96E000E1520EA6EE55208
:10570000E750EF6E0401056B006B016B026B036BDE
:1057100078D70451090802E2000E43D00401052B9A
:1057200002C403F401C402F400C401F4006B04C415
:1057300000F467D70401045111E02F0E045D0EE060
:105740000D0E045D0BE00A0E045D08E0200E045D02
:1057500005E0090E045D02E0000E23D0D880050E9E
:105760000055050E0155020E0255000E035502E2CA
:10577000000E17D00A0E0103F3CF14F0640E0203DB
:10578000F35014240025E66ECBC2E9FFCCC2EAFF39
:10579000030EE926000EEA22E552E750EF6E010EF5
:1057A00000D012000401056B066B006B016B026BED
:1057B000036B0201CDC2F6FFCD2BCEC2F7FF000E68
:1057C000CE23CFC2F8FFCF230800F5CF04F4F55065
:1057D00001E18CD004010651030801E287D0300EAC
:1057E000045F055106E10451090802E2000EB5D03C
:1057F00071D0030E055D36E1FE0E045D02E0000E81
:10580000ACD0D880050E0055050E0155020E02558C
:10581000000E035502E2000EA0D00A0E0103F3CFE2
:1058200016F0640E0203F35016240025E66ED0C273
:10583000E9FFD1C2EAFFE9CF14F0EACF15F0065133
:10584000062B0F011424E96E000E1520EA6EE552B6
:10585000E750EF6E0401056B006B016B026B036B8D
:10586000A8D738D0FE0E045D30E1D880050E005573
:10587000050E0155020E0255000E035502E2000E00
:105880006CD00A0E0103F3CF16F0640E0203F3503E
:1058900016240025E66ED0C2E9FFD1C2EAFFE9CFA7
:1058A00014F0EACF15F00651062B0F011424E96E0F
:1058B000000E1520EA6EE552E750EF6E0401056B0D
:1058C000006B016B026B036B74D70451090802E291
:1058D000000E43D00401052B02C403F401C402F4FA
:1058E00000C401F4006B04C400F463D70401045144
:1058F00011E02F0E045D0EE00D0E045D0BE00A0EAC
:10590000045D08E0200E045D05E0090E045D02E080
:10591000000E23D0D880050E0055050E0155020E4D
:105920000255000E035502E2000E17D00A0E0103C5
:10593000F3CF14F0640E0203F35014240025E66E36
:10594000D0C2E9FFD1C2EAFF030EE926000EEA2227
:10595000E552E750EF6E010E00D012000401056B16
:105960000201D251D3114EE00401006B100E036FFF
:10597000270E046F050E005D44E2D2C208F0D3C2C8
:1059800009F003C40DF004C40EF0FCEC38F008C0BC
:1059900001F409C002F404010151021102E10551B0
:1059A00020E0300E0125E66E0201D4C2E9FFD5C227
:1059B000EAFFD42B000ED523E552E750EF6E01C469
:1059C00008F002C409F003C40DF004C40EF004ECA6
:1059D00038F006500201D25F0750D35B0401010E7C
:1059E000056F0A0E0D6E0E6A03C408F004C409F0B8
:1059F000FCEC38F008C003F409C004F40401002BE7
:105A0000B9D709D0D4C2E9FFD5C2EAFFD42B000E22
:105A1000D523300EEF6ED4C2E9FFD5C2EAFFEF6A9C
:105A200012000201D751460802E2200ED75FD6517C
:105A3000460802E2200ED65FD751390803E2370E3E
:105A4000D75F02D0300ED75FD651390803E2370E48
:105A5000D65F02D0300ED65FD739F00BD61100D00A
:105A600012000201D8390F0BD86FD851090804E28F
:105A7000410ED825F60F02D0300ED82500D01200E6
:105A80000F0E0201D917D951090804E2410ED92598
:105A9000F60F02D0300ED92500D01200DAC2E9FF8D
:105AA000DBC2EAFFEFCF00F4DCC2F6FFDDC2F7FF96
:105AB000DEC2F8FF0800F5CF01F40401005134E024
